:020000040000FA
:02000000FF28D7
:040002000034003492
:08000800112982072D342D346B
:100010004234493445344E34563445344E344934F0
:1000200044344F3453342D342D342D348207493425
:100030004E344734523445345334453420344C34F0
:100040004134203443344C344134563445348207EF
:100050002A342A342A342A342034203420344934AF
:100060004E34543445344E3454344F343A342034BE
:100070008207303431343234333434343534363426
:100080003734383439344134820743344C344134C2
:100090005634453420342034203443344F345234E1
:1000A00052344534433454344134820749344E3455
:1000B000543445344E3454344F342034443445346D
:1000C00020344E345534453456344F34820743344B
:1000D00041344A34453452344F34203442344C3461
:1000E0004F34513455344534413444344F3482070D
:1000F000533445342E344F3450343A342034203481
:1001000031342E34433441342F3443344C3441346D
:10011000820732342E345234453454344934523404
:100120004F34203433342E34533441344C3444343B
:100130004F3482074F345034433449344F344E34B3
:1001400020344E344F342034563441344C34493406
:1001500044344134820749344E34473452344534B0
:100160005334453420344C34413420344E345534E7
:10017000453456344134820743344C344134563488
:1001800045343A3420342A342A342A342A34203468
:10019000203420342034203482074F345034453406
:1001A00052344134433449344F344E344534583456
:1001B000493454344F34533441348207203420348A
:1001C0003134243435343034303430342034323423
:1001D00024343134303430343034303482073334E2
:1001E0002434313435343034303430342034203415
:1001F00034342434323430343034303430348121A7
:10020000A921C221FF30A6000F302606031D0429B4
:10021000CE216B22FF30A6000F302606031D0C29CD
:10022000CC228B1321210B1C1C29F03086005C256D
:10023000F0300606031D2921F03086000B10252121
:100240000900A2000308A300080022082308830075
:100250000800FE308600861B30290F30A6000800FB
:10026000061B35290B30A6000800861A3A290C30E7
:10027000A6000800061A3F290D30A6000800FD3030
:100280008600861B46290330A6000800061B4B2962
:100290000630A6000800861A50290930A60008007A
:1002A000061A55290A30A6000800FB308600861B76
:1002B0005C290230A6000800061B61290530A60053
:1002C0000800861A66290830A6000800061A6B295D
:1002D0000030A6000800F7308600861B7229013026
:1002E000A6000800061B77290430A6000800861A1D
:1002F0007C290730A6000800061A81290E30A600C6
:10030000080083160313F1308F00F0308600870158
:10031000890183160317890188018B178B158316B2
:100320000313811383160313F03095009600831294
:100330000313F030860087018901A6010030AB006D
:100340000130AC000230AD000330AE00C830B20066
:100350000800A0015C253830A000B8210D30A000B5
:10036000B8210630A000B8210130A000B821080053
:100370000910BB2909142008870089145625891003
:1003800056250800AF01A1010130B0002108052069
:10039000A000BA21A10A211EC62908000130A00030
:1003A000B821A101A00121081620A000BA21A10AAC
:1003B000211ED229C030A000B821A101A00121082E
:1003C0002720A000BA21A10A211EDF29CF30A000DA
:1003D000B82130083820A000BA21C030A000B821D0
:1003E000FF30A600FF3026060319F2290A30260244
:1003F0000318F0292608A7003820A000BA21FF30F2
:10040000A600FF3026060319012A0D30260603191F
:1004100000290B302606031D112A1030A000B82138
:10042000F0290A3026020318FF292608A8003820E0
:10043000A000BA21FF30A600FF30260603191C2AAF
:100440000D302606031900290B302606031D2C2A21
:100450001030A000B821FF290A30260203181A2AFA
:100460002608A9003820A000BA21FF30A600FF30DE
:1004700026060319372A0D302606031900290B30EA
:100480002606031D472A1030A000B8211A2A0A3078
:1004900026020318352A2608AA003820A000BA210F
:1004A000FF30A600FF3026060319522A0D3026061B
:1004B000031900290B302606031D622A1030A00004
:1004C000B821352A0D302606031900290F302606DB
:1004D000031D502A0800A001A10127082B06031DB7
:1004E0008A2A28082C06031D8A2A29082D06031D9E
:1004F0008A2A2A082E06031D8A2A0130A000B82164
:10050000A101A00121084420A000BA21A10A211EB6
:10051000812A0800B00AAF0A04302F060319B92A4D
:100520000130A000B821A101A00121084420A000B1
:10053000BA21A10A211E952A8630A000B82149308F
:10054000A000BA214E30A000BA21C030A000B821CE
:10055000A101A00121085520A000BA21A10A211E55
:10056000AA2AFF30A6000F302606031DB32ACE218B
:100570006B2A0130A000B821A101A001210866204A
:10058000A000BA21A10A211EBD2AFF30A6000F300B
:100590002606031DC72A00290130A000B821A101A9
:1005A000A00121087720A000BA21A10A211ED02A8B
:1005B000C030A000B821A101A001A001210888201D
:1005C000A000BA21A10A211EDD2A8630A000B82190
:1005D000FF30A600FF3026060319EA2A2608B100DC
:1005E000043026020318E82A26083820A000BA2181
:1005F000FF30A600FF3026060319FA2A0C30260623
:100600000319CC2A0B3026060319CC2A0D302606F6
:10061000031900290F302606031DF82A0130310680
:10062000031D132B1D2302303106031D182BCD2370
:1006300003303106031DCC2AAB240130A000B821C1
:10064000A101A0012108AA20A000BA21A10A211E0F
:10065000212BC030A000B821A101A0012108BB209E
:10066000A000BA21A10A211E2E2BC730A000B8215C
:10067000FF30A600FF30260603193A2B0A30260267
:100680000318382B2608AB003820A000BA21FF3011
:10069000A600FF3026060319492B0C302606031945
:1006A000CC2A0B302606031D592B1030A000B82190
:1006B000382B0A3026020318472B2608AC003820B6
:1006C000A000BA21FF30A600FF3026060319642BD4
:1006D0000C3026060319CC2A0B302606031D742B7A
:1006E0001030A000B821472B0A3026020318622BD5
:1006F0002608AD003820A000BA21FF30A600FF3048
:10070000260603197F2B0C3026060319CC2A0B3042
:100710002606031D8F2B1030A000B821622B0A3053
:10072000260203187D2B2608AE003820A000BA212F
:10073000FF30A600FF30260603199A2B0C30260640
:100740000319CC2A0B302606031DAA2B1030A0005B
:10075000B8217D2B0F302606031D982B0130A000F9
:10076000B821A101A0012108CC20A000BA21A10A32
:10077000211EB22BFF30A600FF3026060319BC2B2A
:100780000C3026060319CC2A0F3026060319CC2A72
:100790000D30260603190029BA2B0130A000B8211C
:1007A000A101A0012108DD20A000BA21A10A211E7B
:1007B000D12BC030A000B821A101A0012108EE205A
:1007C000A000BA21A10A211EDE2B8030A000B82192
:1007D000FF30A600FF3026060319EA2B2608B300D7
:1007E000053026020318E82B26083820A000BA217D
:1007F000FF30A600FF3026060319FA2B0B30260621
:100800000319CD2B0C3026060319CC2A0D302606F1
:10081000031900290F302606031DF82B013033067B
:10082000031D132C222C02303306031D182C282CF8
:1008300003303306031D1D2C312C04303306031DF9
:10084000CD2B3A2C05303202B2000318432C5E2C1B
:100850000A303202B2000318432C0A303207B200C9
:100860005E2C0F303202B2000318432C0F303207D7
:10087000B2005E2C14303202B2000318432C143044
:100880003207B2005E2C0130A000B821A101A00106
:100890002108CC20A000BA21A10A211E472CFF303C
:1008A000A600FF3026060319512C0F302606031927
:1008B000CC2A0D302606031900294F2C0130A00048
:1008C000B821A1018630A000B8215330A000BA2180
:1008D0004130A000BA214C30A000BA214430A00021
:1008E000BA214F30A000BA21C230A000B821A10126
:1008F0004930A000BA214E30A000BA215330A000E8
:10090000BA215530A000BA214630A000BA214930A2
:10091000A000BA214330A000BA214930A000BA217A
:100920004530A000BA214E30A000BA215430A000BA
:10093000BA214530A000BA21FF30A600FF302606BC
:1009400003199E2C0F3026060319CC2A0D302606DB
:10095000031900299C2CB501B601B7013208B50076
:1009600035086430B502031CB72CB70AB02C350823
:100970006430B507350835080A30B502031CC22CAF
:10098000B60ABB2C35080A30B50700303706031904
:10099000CA2CD42C003036060319CF2CD42C0030AE
:1009A0003506031DD42C062D0130A000B821A1016D
:1009B0005330A000BA214130A000BA214C30A00031
:1009C000BA214430A000BA214F30A000BA213A30F9
:1009D000A000BA212030A000BA212430A000BA2102
:1009E00037083820A000BA2136083820A000BA21E4
:1009F00035083820A000BA213030A000BA213030AC
:100A0000A000BA213030A000BA21282D0130A0006A
:100A1000B821A1015330A000BA214930A000BA2169
:100A20004E30A000BA212030A000BA214630A000EC
:100A3000BA213030A000BA214E30A000BA21443093
:100A4000A000BA214F30A000BA215330A000BA2133
:100A5000FF30A600FF30260603192A2D0F30260688
:100A60000319CC2A0C3026060319CC2A0D30260691
:100A700003190029282D00000000000000000000DC
:100A8000000008000000A4304E2D000040304E2D24
:100A90001F304E2D00000E304E2D0530B800B80B23
:100AA0004F2D0800C830612D6430612D3230612D2A
:100AB0001430612D0A30612D0530612D0230612D19
:100AC0000130B900F930B8000000B80B642DB90B43
:100AD000622D0800C830752D6430752D3230752DAB
:100AE0001430752D0A30752D0530BA006430B90008
:100AF000F930B8000000B80B7A2DB90B782DBA0B7D
:100B0000762D08000130BE00C830BF00FF30C000A5
:100B1000C00B882DBF0B862DBE0B842D08000A301C
:100B2000BD006430BC006430BB00BB0B952DBC0B1A
:080B3000932DBD0B912D08006F
:02400E00F22F8F
:02401000FF3F70
:00000001FF
